{
	"contracts/HotelRoom.sol": {
		"HotelRoom": {
			"abi": [
				{
					"inputs": [],
					"stateMutability": "nonpayable",
					"type": "constructor"
				},
				{
					"anonymous": false,
					"inputs": [
						{
							"indexed": false,
							"internalType": "address",
							"name": "_occupant",
							"type": "address"
						},
						{
							"indexed": false,
							"internalType": "uint256",
							"name": "_value",
							"type": "uint256"
						}
					],
					"name": "Occupy",
					"type": "event"
				},
				{
					"inputs": [],
					"name": "bookRoom",
					"outputs": [],
					"stateMutability": "payable",
					"type": "function"
				},
				{
					"inputs": [],
					"name": "currentStatus",
					"outputs": [
						{
							"internalType": "enum HotelRoom.Statuses",
							"name": "",
							"type": "uint8"
						}
					],
					"stateMutability": "view",
					"type": "function"
				},
				{
					"inputs": [],
					"name": "owner",
					"outputs": [
						{
							"internalType": "address payable",
							"name": "",
							"type": "address"
						}
					],
					"stateMutability": "view",
					"type": "function"
				}
			],
			"devdoc": {
				"kind": "dev",
				"methods": {},
				"version": 1
			},
			"evm": {
				"assembly": "    /* \"contracts/HotelRoom.sol\":59:1920  contract HotelRoom{... */\n  mstore(0x40, 0x80)\n    /* \"contracts/HotelRoom.sol\":482:658  constructor(){... */\n  callvalue\n  dup1\n  iszero\n  tag_1\n  jumpi\n  0x00\n  dup1\n  revert\ntag_1:\n  pop\n    /* \"contracts/HotelRoom.sol\":522:532  msg.sender */\n  caller\n    /* \"contracts/HotelRoom.sol\":506:511  owner */\n  0x00\n  0x01\n    /* \"contracts/HotelRoom.sol\":506:533  owner = payable(msg.sender) */\n  0x0100\n  exp\n  dup2\n  sload\n  dup2\n  0xffffffffffffffffffffffffffffffffffffffff\n  mul\n  not\n  and\n  swap1\n  dup4\n  0xffffffffffffffffffffffffffffffffffffffff\n  and\n  mul\n  or\n  swap1\n  sstore\n  pop\n    /* \"contracts/HotelRoom.sol\":635:650  Statuses.Vacant */\n  0x00\n    /* \"contracts/HotelRoom.sol\":619:632  currentStatus */\n  dup1\n  0x00\n    /* \"contracts/HotelRoom.sol\":619:650  currentStatus = Statuses.Vacant */\n  0x0100\n  exp\n  dup2\n  sload\n  dup2\n  0xff\n  mul\n  not\n  and\n  swap1\n  dup4\n  0x01\n  dup2\n  gt\n  iszero\n  tag_4\n  jumpi\n  tag_5\n  tag_6\n  jump\t// in\ntag_5:\ntag_4:\n  mul\n  or\n  swap1\n  sstore\n  pop\n    /* \"contracts/HotelRoom.sol\":59:1920  contract HotelRoom{... */\n  jump(tag_7)\n    /* \"#utility.yul\":7:187   */\ntag_6:\n    /* \"#utility.yul\":55:132   */\n  0x4e487b7100000000000000000000000000000000000000000000000000000000\n    /* \"#utility.yul\":52:53   */\n  0x00\n    /* \"#utility.yul\":45:133   */\n  mstore\n    /* \"#utility.yul\":152:156   */\n  0x21\n    /* \"#utility.yul\":149:150   */\n  0x04\n    /* \"#utility.yul\":142:157   */\n  mstore\n    /* \"#utility.yul\":176:180   */\n  0x24\n    /* \"#utility.yul\":173:174   */\n  0x00\n    /* \"#utility.yul\":166:181   */\n  revert\n    /* \"contracts/HotelRoom.sol\":59:1920  contract HotelRoom{... */\ntag_7:\n  dataSize(sub_0)\n  dup1\n  dataOffset(sub_0)\n  0x00\n  codecopy\n  0x00\n  return\nstop\n\nsub_0: assembly {\n        /* \"contracts/HotelRoom.sol\":59:1920  contract HotelRoom{... */\n      mstore(0x40, 0x80)\n      jumpi(tag_1, lt(calldatasize, 0x04))\n      shr(0xe0, calldataload(0x00))\n      dup1\n      0x8da5cb5b\n      eq\n      tag_2\n      jumpi\n      dup1\n      0xb55a3910\n      eq\n      tag_3\n      jumpi\n      dup1\n      0xef8a9235\n      eq\n      tag_4\n      jumpi\n    tag_1:\n      0x00\n      dup1\n      revert\n        /* \"contracts/HotelRoom.sol\":380:408  address payable public owner */\n    tag_2:\n      callvalue\n      dup1\n      iszero\n      tag_5\n      jumpi\n      0x00\n      dup1\n      revert\n    tag_5:\n      pop\n      tag_6\n      tag_7\n      jump\t// in\n    tag_6:\n      mload(0x40)\n      tag_8\n      swap2\n      swap1\n      tag_9\n      jump\t// in\n    tag_8:\n      mload(0x40)\n      dup1\n      swap2\n      sub\n      swap1\n      return\n        /* \"contracts/HotelRoom.sol\":1370:1917  function bookRoom() payable public onlyWhileVacant costs(2 ether){... */\n    tag_3:\n      tag_10\n      tag_11\n      jump\t// in\n    tag_10:\n      stop\n        /* \"contracts/HotelRoom.sol\":300:329  Statuses public currentStatus */\n    tag_4:\n      callvalue\n      dup1\n      iszero\n      tag_12\n      jumpi\n      0x00\n      dup1\n      revert\n    tag_12:\n      pop\n      tag_13\n      tag_14\n      jump\t// in\n    tag_13:\n      mload(0x40)\n      tag_15\n      swap2\n      swap1\n      tag_16\n      jump\t// in\n    tag_15:\n      mload(0x40)\n      dup1\n      swap2\n      sub\n      swap1\n      return\n        /* \"contracts/HotelRoom.sol\":380:408  address payable public owner */\n    tag_7:\n      0x00\n      0x01\n      swap1\n      sload\n      swap1\n      0x0100\n      exp\n      swap1\n      div\n      0xffffffffffffffffffffffffffffffffffffffff\n      and\n      dup2\n      jump\t// out\n        /* \"contracts/HotelRoom.sol\":1370:1917  function bookRoom() payable public onlyWhileVacant costs(2 ether){... */\n    tag_11:\n        /* \"contracts/HotelRoom.sol\":1063:1078  Statuses.Vacant */\n      0x00\n        /* \"contracts/HotelRoom.sol\":1046:1078  currentStatus == Statuses.Vacant */\n      0x01\n      dup2\n      gt\n      iszero\n      tag_18\n      jumpi\n      tag_19\n      tag_20\n      jump\t// in\n    tag_19:\n    tag_18:\n        /* \"contracts/HotelRoom.sol\":1046:1059  currentStatus */\n      0x00\n      dup1\n      sload\n      swap1\n      0x0100\n      exp\n      swap1\n      div\n      0xff\n      and\n        /* \"contracts/HotelRoom.sol\":1046:1078  currentStatus == Statuses.Vacant */\n      0x01\n      dup2\n      gt\n      iszero\n      tag_21\n      jumpi\n      tag_22\n      tag_20\n      jump\t// in\n    tag_22:\n    tag_21:\n      eq\n        /* \"contracts/HotelRoom.sol\":1038:1108  require(currentStatus == Statuses.Vacant,\"This room is not vacant :(\") */\n      tag_23\n      jumpi\n      mload(0x40)\n      0x08c379a000000000000000000000000000000000000000000000000000000000\n      dup2\n      mstore\n      0x04\n      add\n      tag_24\n      swap1\n      tag_25\n      jump\t// in\n    tag_24:\n      mload(0x40)\n      dup1\n      swap2\n      sub\n      swap1\n      revert\n    tag_23:\n        /* \"contracts/HotelRoom.sol\":1427:1434  2 ether */\n      0x1bc16d674ec80000\n        /* \"contracts/HotelRoom.sol\":1266:1273  _amount */\n      dup1\n        /* \"contracts/HotelRoom.sol\":1253:1262  msg.value */\n      callvalue\n        /* \"contracts/HotelRoom.sol\":1253:1273  msg.value >= _amount */\n      lt\n      iszero\n        /* \"contracts/HotelRoom.sol\":1245:1295  require(msg.value >= _amount,\"Insufficient Ether\") */\n      tag_27\n      jumpi\n      mload(0x40)\n      0x08c379a000000000000000000000000000000000000000000000000000000000\n      dup2\n      mstore\n      0x04\n      add\n      tag_28\n      swap1\n      tag_29\n      jump\t// in\n    tag_28:\n      mload(0x40)\n      dup1\n      swap2\n      sub\n      swap1\n      revert\n    tag_27:\n        /* \"contracts/HotelRoom.sol\":1462:1479  Statuses.Occupied */\n      0x01\n        /* \"contracts/HotelRoom.sol\":1446:1459  currentStatus */\n      0x00\n      dup1\n        /* \"contracts/HotelRoom.sol\":1446:1479  currentStatus = Statuses.Occupied */\n      0x0100\n      exp\n      dup2\n      sload\n      dup2\n      0xff\n      mul\n      not\n      and\n      swap1\n      dup4\n      0x01\n      dup2\n      gt\n      iszero\n      tag_31\n      jumpi\n      tag_32\n      tag_20\n      jump\t// in\n    tag_32:\n    tag_31:\n      mul\n      or\n      swap1\n      sstore\n      pop\n        /* \"contracts/HotelRoom.sol\":1681:1690  bool sent */\n      0x00\n        /* \"contracts/HotelRoom.sol\":1692:1709  bytes memory data */\n      dup1\n        /* \"contracts/HotelRoom.sol\":1713:1718  owner */\n      0x00\n      0x01\n      swap1\n      sload\n      swap1\n      0x0100\n      exp\n      swap1\n      div\n      0xffffffffffffffffffffffffffffffffffffffff\n      and\n        /* \"contracts/HotelRoom.sol\":1713:1723  owner.call */\n      0xffffffffffffffffffffffffffffffffffffffff\n      and\n        /* \"contracts/HotelRoom.sol\":1731:1740  msg.value */\n      callvalue\n        /* \"contracts/HotelRoom.sol\":1713:1745  owner.call{value: msg.value}(\"\") */\n      mload(0x40)\n      tag_33\n      swap1\n      tag_34\n      jump\t// in\n    tag_33:\n      0x00\n      mload(0x40)\n      dup1\n      dup4\n      sub\n      dup2\n      dup6\n      dup8\n      gas\n      call\n      swap3\n      pop\n      pop\n      pop\n      returndatasize\n      dup1\n      0x00\n      dup2\n      eq\n      tag_37\n      jumpi\n      mload(0x40)\n      swap2\n      pop\n      and(add(returndatasize, 0x3f), not(0x1f))\n      dup3\n      add\n      0x40\n      mstore\n      returndatasize\n      dup3\n      mstore\n      returndatasize\n      0x00\n      0x20\n      dup5\n      add\n      returndatacopy\n      jump(tag_36)\n    tag_37:\n      0x60\n      swap2\n      pop\n    tag_36:\n      pop\n        /* \"contracts/HotelRoom.sol\":1680:1745  (bool sent, bytes memory data) = owner.call{value: msg.value}(\"\") */\n      swap2\n      pop\n      swap2\n      pop\n        /* \"contracts/HotelRoom.sol\":1816:1820  true */\n      0x01\n        /* \"contracts/HotelRoom.sol\":1808:1821  require(true) */\n      tag_38\n      jumpi\n      0x00\n      dup1\n      revert\n    tag_38:\n        /* \"contracts/HotelRoom.sol\":1881:1909  Occupy(msg.sender,msg.value) */\n      0xba951166d42eb077151bdecb7cf6027562f04f0143b0c141b1bb0a33eef5d693\n        /* \"contracts/HotelRoom.sol\":1888:1898  msg.sender */\n      caller\n        /* \"contracts/HotelRoom.sol\":1899:1908  msg.value */\n      callvalue\n        /* \"contracts/HotelRoom.sol\":1881:1909  Occupy(msg.sender,msg.value) */\n      mload(0x40)\n      tag_39\n      swap3\n      swap2\n      swap1\n      tag_40\n      jump\t// in\n    tag_39:\n      mload(0x40)\n      dup1\n      swap2\n      sub\n      swap1\n      log1\n        /* \"contracts/HotelRoom.sol\":1435:1917  {... */\n      pop\n      pop\n        /* \"contracts/HotelRoom.sol\":1166:1167  _ */\n      pop\n        /* \"contracts/HotelRoom.sol\":1370:1917  function bookRoom() payable public onlyWhileVacant costs(2 ether){... */\n      jump\t// out\n        /* \"contracts/HotelRoom.sol\":300:329  Statuses public currentStatus */\n    tag_14:\n      0x00\n      dup1\n      sload\n      swap1\n      0x0100\n      exp\n      swap1\n      div\n      0xff\n      and\n      dup2\n      jump\t// out\n        /* \"#utility.yul\":7:133   */\n    tag_41:\n        /* \"#utility.yul\":44:51   */\n      0x00\n        /* \"#utility.yul\":84:126   */\n      0xffffffffffffffffffffffffffffffffffffffff\n        /* \"#utility.yul\":77:82   */\n      dup3\n        /* \"#utility.yul\":73:127   */\n      and\n        /* \"#utility.yul\":62:127   */\n      swap1\n      pop\n        /* \"#utility.yul\":7:133   */\n      swap2\n      swap1\n      pop\n      jump\t// out\n        /* \"#utility.yul\":139:243   */\n    tag_42:\n        /* \"#utility.yul\":184:191   */\n      0x00\n        /* \"#utility.yul\":213:237   */\n      tag_63\n        /* \"#utility.yul\":231:236   */\n      dup3\n        /* \"#utility.yul\":213:237   */\n      tag_41\n      jump\t// in\n    tag_63:\n        /* \"#utility.yul\":202:237   */\n      swap1\n      pop\n        /* \"#utility.yul\":139:243   */\n      swap2\n      swap1\n      pop\n      jump\t// out\n        /* \"#utility.yul\":249:391   */\n    tag_43:\n        /* \"#utility.yul\":352:384   */\n      tag_65\n        /* \"#utility.yul\":378:383   */\n      dup2\n        /* \"#utility.yul\":352:384   */\n      tag_42\n      jump\t// in\n    tag_65:\n        /* \"#utility.yul\":347:350   */\n      dup3\n        /* \"#utility.yul\":340:385   */\n      mstore\n        /* \"#utility.yul\":249:391   */\n      pop\n      pop\n      jump\t// out\n        /* \"#utility.yul\":397:651   */\n    tag_9:\n        /* \"#utility.yul\":506:510   */\n      0x00\n        /* \"#utility.yul\":544:546   */\n      0x20\n        /* \"#utility.yul\":533:542   */\n      dup3\n        /* \"#utility.yul\":529:547   */\n      add\n        /* \"#utility.yul\":521:547   */\n      swap1\n      pop\n        /* \"#utility.yul\":557:644   */\n      tag_67\n        /* \"#utility.yul\":641:642   */\n      0x00\n        /* \"#utility.yul\":630:639   */\n      dup4\n        /* \"#utility.yul\":626:643   */\n      add\n        /* \"#utility.yul\":617:623   */\n      dup5\n        /* \"#utility.yul\":557:644   */\n      tag_43\n      jump\t// in\n    tag_67:\n        /* \"#utility.yul\":397:651   */\n      swap3\n      swap2\n      pop\n      pop\n      jump\t// out\n        /* \"#utility.yul\":657:837   */\n    tag_20:\n        /* \"#utility.yul\":705:782   */\n      0x4e487b7100000000000000000000000000000000000000000000000000000000\n        /* \"#utility.yul\":702:703   */\n      0x00\n        /* \"#utility.yul\":695:783   */\n      mstore\n        /* \"#utility.yul\":802:806   */\n      0x21\n        /* \"#utility.yul\":799:800   */\n      0x04\n        /* \"#utility.yul\":792:807   */\n      mstore\n        /* \"#utility.yul\":826:830   */\n      0x24\n        /* \"#utility.yul\":823:824   */\n      0x00\n        /* \"#utility.yul\":816:831   */\n      revert\n        /* \"#utility.yul\":843:958   */\n    tag_44:\n        /* \"#utility.yul\":926:927   */\n      0x02\n        /* \"#utility.yul\":919:924   */\n      dup2\n        /* \"#utility.yul\":916:928   */\n      lt\n        /* \"#utility.yul\":906:952   */\n      tag_70\n      jumpi\n        /* \"#utility.yul\":932:950   */\n      tag_71\n      tag_20\n      jump\t// in\n    tag_71:\n        /* \"#utility.yul\":906:952   */\n    tag_70:\n        /* \"#utility.yul\":843:958   */\n      pop\n      jump\t// out\n        /* \"#utility.yul\":964:1095   */\n    tag_45:\n        /* \"#utility.yul\":1011:1018   */\n      0x00\n        /* \"#utility.yul\":1040:1045   */\n      dup2\n        /* \"#utility.yul\":1029:1045   */\n      swap1\n      pop\n        /* \"#utility.yul\":1046:1089   */\n      tag_73\n        /* \"#utility.yul\":1083:1088   */\n      dup3\n        /* \"#utility.yul\":1046:1089   */\n      tag_44\n      jump\t// in\n    tag_73:\n        /* \"#utility.yul\":964:1095   */\n      swap2\n      swap1\n      pop\n      jump\t// out\n        /* \"#utility.yul\":1101:1232   */\n    tag_46:\n        /* \"#utility.yul\":1159:1168   */\n      0x00\n        /* \"#utility.yul\":1192:1226   */\n      tag_75\n        /* \"#utility.yul\":1220:1225   */\n      dup3\n        /* \"#utility.yul\":1192:1226   */\n      tag_45\n      jump\t// in\n    tag_75:\n        /* \"#utility.yul\":1179:1226   */\n      swap1\n      pop\n        /* \"#utility.yul\":1101:1232   */\n      swap2\n      swap1\n      pop\n      jump\t// out\n        /* \"#utility.yul\":1238:1385   */\n    tag_47:\n        /* \"#utility.yul\":1333:1378   */\n      tag_77\n        /* \"#utility.yul\":1372:1377   */\n      dup2\n        /* \"#utility.yul\":1333:1378   */\n      tag_46\n      jump\t// in\n    tag_77:\n        /* \"#utility.yul\":1328:1331   */\n      dup3\n        /* \"#utility.yul\":1321:1379   */\n      mstore\n        /* \"#utility.yul\":1238:1385   */\n      pop\n      pop\n      jump\t// out\n        /* \"#utility.yul\":1391:1629   */\n    tag_16:\n        /* \"#utility.yul\":1492:1496   */\n      0x00\n        /* \"#utility.yul\":1530:1532   */\n      0x20\n        /* \"#utility.yul\":1519:1528   */\n      dup3\n        /* \"#utility.yul\":1515:1533   */\n      add\n        /* \"#utility.yul\":1507:1533   */\n      swap1\n      pop\n        /* \"#utility.yul\":1543:1622   */\n      tag_79\n        /* \"#utility.yul\":1619:1620   */\n      0x00\n        /* \"#utility.yul\":1608:1617   */\n      dup4\n        /* \"#utility.yul\":1604:1621   */\n      add\n        /* \"#utility.yul\":1595:1601   */\n      dup5\n        /* \"#utility.yul\":1543:1622   */\n      tag_47\n      jump\t// in\n    tag_79:\n        /* \"#utility.yul\":1391:1629   */\n      swap3\n      swap2\n      pop\n      pop\n      jump\t// out\n        /* \"#utility.yul\":1635:1804   */\n    tag_48:\n        /* \"#utility.yul\":1719:1730   */\n      0x00\n        /* \"#utility.yul\":1753:1759   */\n      dup3\n        /* \"#utility.yul\":1748:1751   */\n      dup3\n        /* \"#utility.yul\":1741:1760   */\n      mstore\n        /* \"#utility.yul\":1793:1797   */\n      0x20\n        /* \"#utility.yul\":1788:1791   */\n      dup3\n        /* \"#utility.yul\":1784:1798   */\n      add\n        /* \"#utility.yul\":1769:1798   */\n      swap1\n      pop\n        /* \"#utility.yul\":1635:1804   */\n      swap3\n      swap2\n      pop\n      pop\n      jump\t// out\n        /* \"#utility.yul\":1810:1990   */\n    tag_49:\n        /* \"#utility.yul\":1950:1978   */\n      0x5468697320726f6f6d206973206e6f7420766163616e74203a28000000000000\n        /* \"#utility.yul\":1946:1947   */\n      0x00\n        /* \"#utility.yul\":1938:1944   */\n      dup3\n        /* \"#utility.yul\":1934:1948   */\n      add\n        /* \"#utility.yul\":1927:1979   */\n      mstore\n        /* \"#utility.yul\":1810:1990   */\n      pop\n      jump\t// out\n        /* \"#utility.yul\":2000:2382   */\n    tag_50:\n        /* \"#utility.yul\":2142:2145   */\n      0x00\n        /* \"#utility.yul\":2167:2234   */\n      tag_83\n        /* \"#utility.yul\":2231:2233   */\n      0x1a\n        /* \"#utility.yul\":2226:2229   */\n      dup4\n        /* \"#utility.yul\":2167:2234   */\n      tag_48\n      jump\t// in\n    tag_83:\n        /* \"#utility.yul\":2160:2234   */\n      swap2\n      pop\n        /* \"#utility.yul\":2247:2340   */\n      tag_84\n        /* \"#utility.yul\":2336:2339   */\n      dup3\n        /* \"#utility.yul\":2247:2340   */\n      tag_49\n      jump\t// in\n    tag_84:\n        /* \"#utility.yul\":2369:2371   */\n      0x20\n        /* \"#utility.yul\":2364:2367   */\n      dup3\n        /* \"#utility.yul\":2360:2372   */\n      add\n        /* \"#utility.yul\":2353:2372   */\n      swap1\n      pop\n        /* \"#utility.yul\":2000:2382   */\n      swap2\n      swap1\n      pop\n      jump\t// out\n        /* \"#utility.yul\":2392:2827   */\n    tag_25:\n        /* \"#utility.yul\":2558:2562   */\n      0x00\n        /* \"#utility.yul\":2600:2602   */\n      0x20\n        /* \"#utility.yul\":2589:2598   */\n      dup3\n        /* \"#utility.yul\":2585:2603   */\n      add\n        /* \"#utility.yul\":2577:2603   */\n      swap1\n      pop\n        /* \"#utility.yul\":2653:2662   */\n      dup2\n        /* \"#utility.yul\":2647:2651   */\n      dup2\n        /* \"#utility.yul\":2643:2663   */\n      sub\n        /* \"#utility.yul\":2639:2640   */\n      0x00\n        /* \"#utility.yul\":2628:2637   */\n      dup4\n        /* \"#utility.yul\":2624:2641   */\n      add\n        /* \"#utility.yul\":2617:2664   */\n      mstore\n        /* \"#utility.yul\":2685:2816   */\n      tag_86\n        /* \"#utility.yul\":2811:2815   */\n      dup2\n        /* \"#utility.yul\":2685:2816   */\n      tag_50\n      jump\t// in\n    tag_86:\n        /* \"#utility.yul\":2677:2816   */\n      swap1\n      pop\n        /* \"#utility.yul\":2392:2827   */\n      swap2\n      swap1\n      pop\n      jump\t// out\n        /* \"#utility.yul\":2837:3013   */\n    tag_51:\n        /* \"#utility.yul\":2981:3001   */\n      0x496e73756666696369656e742045746865720000000000000000000000000000\n        /* \"#utility.yul\":2977:2978   */\n      0x00\n        /* \"#utility.yul\":2969:2975   */\n      dup3\n        /* \"#utility.yul\":2965:2979   */\n      add\n        /* \"#utility.yul\":2958:3002   */\n      mstore\n        /* \"#utility.yul\":2837:3013   */\n      pop\n      jump\t// out\n        /* \"#utility.yul\":3023:3405   */\n    tag_52:\n        /* \"#utility.yul\":3165:3168   */\n      0x00\n        /* \"#utility.yul\":3190:3257   */\n      tag_89\n        /* \"#utility.yul\":3254:3256   */\n      0x12\n        /* \"#utility.yul\":3249:3252   */\n      dup4\n        /* \"#utility.yul\":3190:3257   */\n      tag_48\n      jump\t// in\n    tag_89:\n        /* \"#utility.yul\":3183:3257   */\n      swap2\n      pop\n        /* \"#utility.yul\":3270:3363   */\n      tag_90\n        /* \"#utility.yul\":3359:3362   */\n      dup3\n        /* \"#utility.yul\":3270:3363   */\n      tag_51\n      jump\t// in\n    tag_90:\n        /* \"#utility.yul\":3392:3394   */\n      0x20\n        /* \"#utility.yul\":3387:3390   */\n      dup3\n        /* \"#utility.yul\":3383:3395   */\n      add\n        /* \"#utility.yul\":3376:3395   */\n      swap1\n      pop\n        /* \"#utility.yul\":3023:3405   */\n      swap2\n      swap1\n      pop\n      jump\t// out\n        /* \"#utility.yul\":3415:3850   */\n    tag_29:\n        /* \"#utility.yul\":3581:3585   */\n      0x00\n        /* \"#utility.yul\":3623:3625   */\n      0x20\n        /* \"#utility.yul\":3612:3621   */\n      dup3\n        /* \"#utility.yul\":3608:3626   */\n      add\n        /* \"#utility.yul\":3600:3626   */\n      swap1\n      pop\n        /* \"#utility.yul\":3676:3685   */\n      dup2\n        /* \"#utility.yul\":3670:3674   */\n      dup2\n        /* \"#utility.yul\":3666:3686   */\n      sub\n        /* \"#utility.yul\":3662:3663   */\n      0x00\n        /* \"#utility.yul\":3651:3660   */\n      dup4\n        /* \"#utility.yul\":3647:3664   */\n      add\n        /* \"#utility.yul\":3640:3687   */\n      mstore\n        /* \"#utility.yul\":3708:3839   */\n      tag_92\n        /* \"#utility.yul\":3834:3838   */\n      dup2\n        /* \"#utility.yul\":3708:3839   */\n      tag_52\n      jump\t// in\n    tag_92:\n        /* \"#utility.yul\":3700:3839   */\n      swap1\n      pop\n        /* \"#utility.yul\":3415:3850   */\n      swap2\n      swap1\n      pop\n      jump\t// out\n        /* \"#utility.yul\":3860:4015   */\n    tag_53:\n        /* \"#utility.yul\":3961:3972   */\n      0x00\n        /* \"#utility.yul\":4002:4005   */\n      dup2\n        /* \"#utility.yul\":3987:4005   */\n      swap1\n      pop\n        /* \"#utility.yul\":3860:4015   */\n      swap3\n      swap2\n      pop\n      pop\n      jump\t// out\n        /* \"#utility.yul\":4025:4143   */\n    tag_54:\n      pop\n      jump\t// out\n        /* \"#utility.yul\":4153:4567   */\n    tag_55:\n        /* \"#utility.yul\":4312:4315   */\n      0x00\n        /* \"#utility.yul\":4337:4420   */\n      tag_96\n        /* \"#utility.yul\":4418:4419   */\n      0x00\n        /* \"#utility.yul\":4413:4416   */\n      dup4\n        /* \"#utility.yul\":4337:4420   */\n      tag_53\n      jump\t// in\n    tag_96:\n        /* \"#utility.yul\":4330:4420   */\n      swap2\n      pop\n        /* \"#utility.yul\":4433:4526   */\n      tag_97\n        /* \"#utility.yul\":4522:4525   */\n      dup3\n        /* \"#utility.yul\":4433:4526   */\n      tag_54\n      jump\t// in\n    tag_97:\n        /* \"#utility.yul\":4555:4556   */\n      0x00\n        /* \"#utility.yul\":4550:4553   */\n      dup3\n        /* \"#utility.yul\":4546:4557   */\n      add\n        /* \"#utility.yul\":4539:4557   */\n      swap1\n      pop\n        /* \"#utility.yul\":4153:4567   */\n      swap2\n      swap1\n      pop\n      jump\t// out\n        /* \"#utility.yul\":4577:4968   */\n    tag_34:\n        /* \"#utility.yul\":4761:4764   */\n      0x00\n        /* \"#utility.yul\":4787:4934   */\n      tag_99\n        /* \"#utility.yul\":4930:4933   */\n      dup3\n        /* \"#utility.yul\":4787:4934   */\n      tag_55\n      jump\t// in\n    tag_99:\n        /* \"#utility.yul\":4780:4934   */\n      swap2\n      pop\n        /* \"#utility.yul\":4955:4958   */\n      dup2\n        /* \"#utility.yul\":4948:4958   */\n      swap1\n      pop\n        /* \"#utility.yul\":4577:4968   */\n      swap2\n      swap1\n      pop\n      jump\t// out\n        /* \"#utility.yul\":4978:5082   */\n    tag_56:\n        /* \"#utility.yul\":5015:5022   */\n      0x00\n        /* \"#utility.yul\":5048:5072   */\n      tag_101\n        /* \"#utility.yul\":5066:5071   */\n      dup3\n        /* \"#utility.yul\":5048:5072   */\n      tag_41\n      jump\t// in\n    tag_101:\n        /* \"#utility.yul\":5037:5072   */\n      swap1\n      pop\n        /* \"#utility.yul\":4978:5082   */\n      swap2\n      swap1\n      pop\n      jump\t// out\n        /* \"#utility.yul\":5092:5218   */\n    tag_57:\n        /* \"#utility.yul\":5183:5207   */\n      tag_103\n        /* \"#utility.yul\":5201:5206   */\n      dup2\n        /* \"#utility.yul\":5183:5207   */\n      tag_56\n      jump\t// in\n    tag_103:\n        /* \"#utility.yul\":5178:5181   */\n      dup3\n        /* \"#utility.yul\":5171:5208   */\n      mstore\n        /* \"#utility.yul\":5092:5218   */\n      pop\n      pop\n      jump\t// out\n        /* \"#utility.yul\":5228:5313   */\n    tag_58:\n        /* \"#utility.yul\":5265:5272   */\n      0x00\n        /* \"#utility.yul\":5298:5303   */\n      dup2\n        /* \"#utility.yul\":5287:5303   */\n      swap1\n      pop\n        /* \"#utility.yul\":5228:5313   */\n      swap2\n      swap1\n      pop\n      jump\t// out\n        /* \"#utility.yul\":5323:5449   */\n    tag_59:\n        /* \"#utility.yul\":5414:5438   */\n      tag_106\n        /* \"#utility.yul\":5432:5437   */\n      dup2\n        /* \"#utility.yul\":5414:5438   */\n      tag_58\n      jump\t// in\n    tag_106:\n        /* \"#utility.yul\":5409:5412   */\n      dup3\n        /* \"#utility.yul\":5402:5439   */\n      mstore\n        /* \"#utility.yul\":5323:5449   */\n      pop\n      pop\n      jump\t// out\n        /* \"#utility.yul\":5459:5807   */\n    tag_40:\n        /* \"#utility.yul\":5580:5584   */\n      0x00\n        /* \"#utility.yul\":5622:5624   */\n      0x40\n        /* \"#utility.yul\":5611:5620   */\n      dup3\n        /* \"#utility.yul\":5607:5625   */\n      add\n        /* \"#utility.yul\":5599:5625   */\n      swap1\n      pop\n        /* \"#utility.yul\":5639:5710   */\n      tag_108\n        /* \"#utility.yul\":5707:5708   */\n      0x00\n        /* \"#utility.yul\":5696:5705   */\n      dup4\n        /* \"#utility.yul\":5692:5709   */\n      add\n        /* \"#utility.yul\":5683:5689   */\n      dup6\n        /* \"#utility.yul\":5639:5710   */\n      tag_57\n      jump\t// in\n    tag_108:\n        /* \"#utility.yul\":5724:5796   */\n      tag_109\n        /* \"#utility.yul\":5792:5794   */\n      0x20\n        /* \"#utility.yul\":5781:5790   */\n      dup4\n        /* \"#utility.yul\":5777:5795   */\n      add\n        /* \"#utility.yul\":5768:5774   */\n      dup5\n        /* \"#utility.yul\":5724:5796   */\n      tag_59\n      jump\t// in\n    tag_109:\n        /* \"#utility.yul\":5459:5807   */\n      swap4\n      swap3\n      pop\n      pop\n      pop\n      jump\t// out\n\n    auxdata: 0xa26469706673582212200bdb602fd57ba1e65c1983d9772133015b0aaafec0e27d703b3c739be179e49264736f6c63430008080033\n}\n",
				"bytecode": {
					"linkReferences": {},
					"object": "608060405234801561001057600080fd5b5033600060016101000a81548173ffffffffffffffffffffffffffffffffffffffff021916908373ffffffffffffffffffffffffffffffffffffffff16021790555060008060006101000a81548160ff0219169083600181111561007757610076610081565b5b02179055506100b0565b7f4e487b7100000000000000000000000000000000000000000000000000000000600052602160045260246000fd5b610549806100bf6000396000f3fe6080604052600436106100345760003560e01c80638da5cb5b14610039578063b55a391014610064578063ef8a92351461006e575b600080fd5b34801561004557600080fd5b5061004e610099565b60405161005b91906102d4565b60405180910390f35b61006c6100bf565b005b34801561007a57600080fd5b50610083610282565b6040516100909190610366565b60405180910390f35b600060019054906101000a900473ffffffffffffffffffffffffffffffffffffffff1681565b600060018111156100d3576100d26102ef565b5b60008054906101000a900460ff1660018111156100f3576100f26102ef565b5b14610133576040517f08c379a000000000000000000000000000000000000000000000000000000000815260040161012a906103de565b60405180910390fd5b671bc16d674ec800008034101561017f576040517f08c379a00000000000000000000000000000000000000000000000000000000081526004016101769061044a565b60405180910390fd5b60016000806101000a81548160ff021916908360018111156101a4576101a36102ef565b5b0217905550600080600060019054906101000a900473ffffffffffffffffffffffffffffffffffffffff1673ffffffffffffffffffffffffffffffffffffffff16346040516101f29061049b565b60006040518083038185875af1925050503d806000811461022f576040519150601f19603f3d011682016040523d82523d6000602084013e610234565b606091505b5091509150600161024457600080fd5b7fba951166d42eb077151bdecb7cf6027562f04f0143b0c141b1bb0a33eef5d69333346040516102759291906104ea565b60405180910390a1505050565b60008054906101000a900460ff1681565b600073ffffffffffffffffffffffffffffffffffffffff82169050919050565b60006102be82610293565b9050919050565b6102ce816102b3565b82525050565b60006020820190506102e960008301846102c5565b92915050565b7f4e487b7100000000000000000000000000000000000000000000000000000000600052602160045260246000fd5b6002811061032f5761032e6102ef565b5b50565b60008190506103408261031e565b919050565b600061035082610332565b9050919050565b61036081610345565b82525050565b600060208201905061037b6000830184610357565b92915050565b600082825260208201905092915050565b7f5468697320726f6f6d206973206e6f7420766163616e74203a28000000000000600082015250565b60006103c8601a83610381565b91506103d382610392565b602082019050919050565b600060208201905081810360008301526103f7816103bb565b9050919050565b7f496e73756666696369656e742045746865720000000000000000000000000000600082015250565b6000610434601283610381565b915061043f826103fe565b602082019050919050565b6000602082019050818103600083015261046381610427565b9050919050565b600081905092915050565b50565b600061048560008361046a565b915061049082610475565b600082019050919050565b60006104a682610478565b9150819050919050565b60006104bb82610293565b9050919050565b6104cb816104b0565b82525050565b6000819050919050565b6104e4816104d1565b82525050565b60006040820190506104ff60008301856104c2565b61050c60208301846104db565b939250505056fea26469706673582212200bdb602fd57ba1e65c1983d9772133015b0aaafec0e27d703b3c739be179e49264736f6c63430008080033",
					"opcodes": "PUSH1 0x80 PUSH1 0x40 MSTORE CALLVALUE DUP1 ISZERO PUSH2 0x10 JUMPI PUSH1 0x0 DUP1 REVERT JUMPDEST POP CALLER PUSH1 0x0 PUSH1 0x1 PUSH2 0x100 EXP DUP2 SLOAD DUP2 PUSH20 0xFFFFFFFFFFFFFFFFFFFFFFFFFFFFFFFFFFFFFFFF MUL NOT AND SWAP1 DUP4 PUSH20 0xFFFFFFFFFFFFFFFFFFFFFFFFFFFFFFFFFFFFFFFF AND MUL OR SWAP1 SSTORE POP PUSH1 0x0 DUP1 PUSH1 0x0 PUSH2 0x100 EXP DUP2 SLOAD DUP2 PUSH1 0xFF MUL NOT AND SWAP1 DUP4 PUSH1 0x1 DUP2 GT ISZERO PUSH2 0x77 JUMPI PUSH2 0x76 PUSH2 0x81 JUMP JUMPDEST JUMPDEST MUL OR SWAP1 SSTORE POP PUSH2 0xB0 JUMP JUMPDEST PUSH32 0x4E487B7100000000000000000000000000000000000000000000000000000000 PUSH1 0x0 MSTORE PUSH1 0x21 PUSH1 0x4 MSTORE PUSH1 0x24 PUSH1 0x0 REVERT JUMPDEST PUSH2 0x549 DUP1 PUSH2 0xBF PUSH1 0x0 CODECOPY PUSH1 0x0 RETURN INVALID PUSH1 0x80 PUSH1 0x40 MSTORE PUSH1 0x4 CALLDATASIZE LT PUSH2 0x34 JUMPI PUSH1 0x0 CALLDATALOAD PUSH1 0xE0 SHR DUP1 PUSH4 0x8DA5CB5B EQ PUSH2 0x39 JUMPI DUP1 PUSH4 0xB55A3910 EQ PUSH2 0x64 JUMPI DUP1 PUSH4 0xEF8A9235 EQ PUSH2 0x6E JUMPI JUMPDEST PUSH1 0x0 DUP1 REVERT JUMPDEST CALLVALUE DUP1 ISZERO PUSH2 0x45 JUMPI PUSH1 0x0 DUP1 REVERT JUMPDEST POP PUSH2 0x4E PUSH2 0x99 JUMP JUMPDEST PUSH1 0x40 MLOAD PUSH2 0x5B SWAP2 SWAP1 PUSH2 0x2D4 JUMP JUMPDEST PUSH1 0x40 MLOAD DUP1 SWAP2 SUB SWAP1 RETURN JUMPDEST PUSH2 0x6C PUSH2 0xBF JUMP JUMPDEST STOP JUMPDEST CALLVALUE DUP1 ISZERO PUSH2 0x7A JUMPI PUSH1 0x0 DUP1 REVERT JUMPDEST POP PUSH2 0x83 PUSH2 0x282 JUMP JUMPDEST PUSH1 0x40 MLOAD PUSH2 0x90 SWAP2 SWAP1 PUSH2 0x366 JUMP JUMPDEST PUSH1 0x40 MLOAD DUP1 SWAP2 SUB SWAP1 RETURN JUMPDEST PUSH1 0x0 PUSH1 0x1 SWAP1 SLOAD SWAP1 PUSH2 0x100 EXP SWAP1 DIV PUSH20 0xFFFFFFFFFFFFFFFFFFFFFFFFFFFFFFFFFFFFFFFF AND DUP2 JUMP JUMPDEST PUSH1 0x0 PUSH1 0x1 DUP2 GT ISZERO PUSH2 0xD3 JUMPI PUSH2 0xD2 PUSH2 0x2EF JUMP JUMPDEST JUMPDEST PUSH1 0x0 DUP1 SLOAD SWAP1 PUSH2 0x100 EXP SWAP1 DIV PUSH1 0xFF AND PUSH1 0x1 DUP2 GT ISZERO PUSH2 0xF3 JUMPI PUSH2 0xF2 PUSH2 0x2EF JUMP JUMPDEST JUMPDEST EQ PUSH2 0x133 JUMPI PUSH1 0x40 MLOAD PUSH32 0x8C379A000000000000000000000000000000000000000000000000000000000 DUP2 MSTORE PUSH1 0x4 ADD PUSH2 0x12A SWAP1 PUSH2 0x3DE JUMP JUMPDEST PUSH1 0x40 MLOAD DUP1 SWAP2 SUB SWAP1 REVERT JUMPDEST PUSH8 0x1BC16D674EC80000 DUP1 CALLVALUE LT ISZERO PUSH2 0x17F JUMPI PUSH1 0x40 MLOAD PUSH32 0x8C379A000000000000000000000000000000000000000000000000000000000 DUP2 MSTORE PUSH1 0x4 ADD PUSH2 0x176 SWAP1 PUSH2 0x44A JUMP JUMPDEST PUSH1 0x40 MLOAD DUP1 SWAP2 SUB SWAP1 REVERT JUMPDEST PUSH1 0x1 PUSH1 0x0 DUP1 PUSH2 0x100 EXP DUP2 SLOAD DUP2 PUSH1 0xFF MUL NOT AND SWAP1 DUP4 PUSH1 0x1 DUP2 GT ISZERO PUSH2 0x1A4 JUMPI PUSH2 0x1A3 PUSH2 0x2EF JUMP JUMPDEST JUMPDEST MUL OR SWAP1 SSTORE POP PUSH1 0x0 DUP1 PUSH1 0x0 PUSH1 0x1 SWAP1 SLOAD SWAP1 PUSH2 0x100 EXP SWAP1 DIV PUSH20 0xFFFFFFFFFFFFFFFFFFFFFFFFFFFFFFFFFFFFFFFF AND PUSH20 0xFFFFFFFFFFFFFFFFFFFFFFFFFFFFFFFFFFFFFFFF AND CALLVALUE PUSH1 0x40 MLOAD PUSH2 0x1F2 SWAP1 PUSH2 0x49B JUMP JUMPDEST PUSH1 0x0 PUSH1 0x40 MLOAD DUP1 DUP4 SUB DUP2 DUP6 DUP8 GAS CALL SWAP3 POP POP POP RETURNDATASIZE DUP1 PUSH1 0x0 DUP2 EQ PUSH2 0x22F JUMPI PUSH1 0x40 MLOAD SWAP2 POP PUSH1 0x1F NOT PUSH1 0x3F RETURNDATASIZE ADD AND DUP3 ADD PUSH1 0x40 MSTORE RETURNDATASIZE DUP3 MSTORE RETURNDATASIZE PUSH1 0x0 PUSH1 0x20 DUP5 ADD RETURNDATACOPY PUSH2 0x234 JUMP JUMPDEST PUSH1 0x60 SWAP2 POP JUMPDEST POP SWAP2 POP SWAP2 POP PUSH1 0x1 PUSH2 0x244 JUMPI PUSH1 0x0 DUP1 REVERT JUMPDEST PUSH32 0xBA951166D42EB077151BDECB7CF6027562F04F0143B0C141B1BB0A33EEF5D693 CALLER CALLVALUE PUSH1 0x40 MLOAD PUSH2 0x275 SWAP3 SWAP2 SWAP1 PUSH2 0x4EA JUMP JUMPDEST PUSH1 0x40 MLOAD DUP1 SWAP2 SUB SWAP1 LOG1 POP POP POP JUMP JUMPDEST PUSH1 0x0 DUP1 SLOAD SWAP1 PUSH2 0x100 EXP SWAP1 DIV PUSH1 0xFF AND DUP2 JUMP JUMPDEST PUSH1 0x0 PUSH20 0xFFFFFFFFFFFFFFFFFFFFFFFFFFFFFFFFFFFFFFFF DUP3 AND SWAP1 POP SWAP2 SWAP1 POP JUMP JUMPDEST PUSH1 0x0 PUSH2 0x2BE DUP3 PUSH2 0x293 JUMP JUMPDEST SWAP1 POP SWAP2 SWAP1 POP JUMP JUMPDEST PUSH2 0x2CE DUP2 PUSH2 0x2B3 JUMP JUMPDEST DUP3 MSTORE POP POP JUMP JUMPDEST PUSH1 0x0 PUSH1 0x20 DUP3 ADD SWAP1 POP PUSH2 0x2E9 PUSH1 0x0 DUP4 ADD DUP5 PUSH2 0x2C5 JUMP JUMPDEST SWAP3 SWAP2 POP POP JUMP JUMPDEST PUSH32 0x4E487B7100000000000000000000000000000000000000000000000000000000 PUSH1 0x0 MSTORE PUSH1 0x21 PUSH1 0x4 MSTORE PUSH1 0x24 PUSH1 0x0 REVERT JUMPDEST PUSH1 0x2 DUP2 LT PUSH2 0x32F JUMPI PUSH2 0x32E PUSH2 0x2EF JUMP JUMPDEST JUMPDEST POP JUMP JUMPDEST PUSH1 0x0 DUP2 SWAP1 POP PUSH2 0x340 DUP3 PUSH2 0x31E JUMP JUMPDEST SWAP2 SWAP1 POP JUMP JUMPDEST PUSH1 0x0 PUSH2 0x350 DUP3 PUSH2 0x332 JUMP JUMPDEST SWAP1 POP SWAP2 SWAP1 POP JUMP JUMPDEST PUSH2 0x360 DUP2 PUSH2 0x345 JUMP JUMPDEST DUP3 MSTORE POP POP JUMP JUMPDEST PUSH1 0x0 PUSH1 0x20 DUP3 ADD SWAP1 POP PUSH2 0x37B PUSH1 0x0 DUP4 ADD DUP5 PUSH2 0x357 JUMP JUMPDEST SWAP3 SWAP2 POP POP JUMP JUMPDEST PUSH1 0x0 DUP3 DUP3 MSTORE PUSH1 0x20 DUP3 ADD SWAP1 POP SWAP3 SWAP2 POP POP JUMP JUMPDEST PUSH32 0x5468697320726F6F6D206973206E6F7420766163616E74203A28000000000000 PUSH1 0x0 DUP3 ADD MSTORE POP JUMP JUMPDEST PUSH1 0x0 PUSH2 0x3C8 PUSH1 0x1A DUP4 PUSH2 0x381 JUMP JUMPDEST SWAP2 POP PUSH2 0x3D3 DUP3 PUSH2 0x392 JUMP JUMPDEST PUSH1 0x20 DUP3 ADD SWAP1 POP SWAP2 SWAP1 POP JUMP JUMPDEST PUSH1 0x0 PUSH1 0x20 DUP3 ADD SWAP1 POP DUP2 DUP2 SUB PUSH1 0x0 DUP4 ADD MSTORE PUSH2 0x3F7 DUP2 PUSH2 0x3BB JUMP JUMPDEST SWAP1 POP SWAP2 SWAP1 POP JUMP JUMPDEST PUSH32 0x496E73756666696369656E742045746865720000000000000000000000000000 PUSH1 0x0 DUP3 ADD MSTORE POP JUMP JUMPDEST PUSH1 0x0 PUSH2 0x434 PUSH1 0x12 DUP4 PUSH2 0x381 JUMP JUMPDEST SWAP2 POP PUSH2 0x43F DUP3 PUSH2 0x3FE JUMP JUMPDEST PUSH1 0x20 DUP3 ADD SWAP1 POP SWAP2 SWAP1 POP JUMP JUMPDEST PUSH1 0x0 PUSH1 0x20 DUP3 ADD SWAP1 POP DUP2 DUP2 SUB PUSH1 0x0 DUP4 ADD MSTORE PUSH2 0x463 DUP2 PUSH2 0x427 JUMP JUMPDEST SWAP1 POP SWAP2 SWAP1 POP JUMP JUMPDEST PUSH1 0x0 DUP2 SWAP1 POP SWAP3 SWAP2 POP POP JUMP JUMPDEST POP JUMP JUMPDEST PUSH1 0x0 PUSH2 0x485 PUSH1 0x0 DUP4 PUSH2 0x46A JUMP JUMPDEST SWAP2 POP PUSH2 0x490 DUP3 PUSH2 0x475 JUMP JUMPDEST PUSH1 0x0 DUP3 ADD SWAP1 POP SWAP2 SWAP1 POP JUMP JUMPDEST PUSH1 0x0 PUSH2 0x4A6 DUP3 PUSH2 0x478 JUMP JUMPDEST SWAP2 POP DUP2 SWAP1 POP SWAP2 SWAP1 POP JUMP JUMPDEST PUSH1 0x0 PUSH2 0x4BB DUP3 PUSH2 0x293 JUMP JUMPDEST SWAP1 POP SWAP2 SWAP1 POP JUMP JUMPDEST PUSH2 0x4CB DUP2 PUSH2 0x4B0 JUMP JUMPDEST DUP3 MSTORE POP POP JUMP JUMPDEST PUSH1 0x0 DUP2 SWAP1 POP SWAP2 SWAP1 POP JUMP JUMPDEST PUSH2 0x4E4 DUP2 PUSH2 0x4D1 JUMP JUMPDEST DUP3 MSTORE POP POP JUMP JUMPDEST PUSH1 0x0 PUSH1 0x40 DUP3 ADD SWAP1 POP PUSH2 0x4FF PUSH1 0x0 DUP4 ADD DUP6 PUSH2 0x4C2 JUMP JUMPDEST PUSH2 0x50C PUSH1 0x20 DUP4 ADD DUP5 PUSH2 0x4DB JUMP JUMPDEST SWAP4 SWAP3 POP POP POP JUMP INVALID LOG2 PUSH5 0x6970667358 0x22 SLT KECCAK256 SIGNEXTEND 0xDB PUSH1 0x2F 0xD5 PUSH28 0xA1E65C1983D9772133015B0AAAFEC0E27D703B3C739BE179E4926473 PUSH16 0x6C634300080800330000000000000000 "
				},
				"gasEstimates": {
					"creation": {
						"codeDepositCost": "270600",
						"executionCost": "48927",
						"totalCost": "319527"
					},
					"external": {
						"bookRoom()": "infinite",
						"currentStatus()": "2579",
						"owner()": "2542"
					}
				},
				"methodIdentifiers": {
					"bookRoom()": "b55a3910",
					"currentStatus()": "ef8a9235",
					"owner()": "8da5cb5b"
				}
			},
			"storageLayout": {
				"storage": [
					{
						"astId": 7,
						"contract": "contracts/HotelRoom.sol:HotelRoom",
						"label": "currentStatus",
						"offset": 0,
						"slot": "0",
						"type": "t_enum(Statuses)4"
					},
					{
						"astId": 9,
						"contract": "contracts/HotelRoom.sol:HotelRoom",
						"label": "owner",
						"offset": 1,
						"slot": "0",
						"type": "t_address_payable"
					}
				],
				"types": {
					"t_address_payable": {
						"encoding": "inplace",
						"label": "address payable",
						"numberOfBytes": "20"
					},
					"t_enum(Statuses)4": {
						"encoding": "inplace",
						"label": "enum HotelRoom.Statuses",
						"numberOfBytes": "1"
					}
				}
			},
			"userdoc": {
				"kind": "user",
				"methods": {},
				"version": 1
			}
		}
	}
}