{
	"contracts/HotelRoom.sol": {
		"HotelRoom": {
			"abi": [
				{
					"inputs": [],
					"stateMutability": "nonpayable",
					"type": "constructor"
				},
				{
					"anonymous": false,
					"inputs": [
						{
							"indexed": false,
							"internalType": "address",
							"name": "_occupant",
							"type": "address"
						},
						{
							"indexed": false,
							"internalType": "uint256",
							"name": "_value",
							"type": "uint256"
						}
					],
					"name": "Occupy",
					"type": "event"
				},
				{
					"inputs": [],
					"name": "bookRoom",
					"outputs": [],
					"stateMutability": "payable",
					"type": "function"
				},
				{
					"inputs": [],
					"name": "owner",
					"outputs": [
						{
							"internalType": "address payable",
							"name": "",
							"type": "address"
						}
					],
					"stateMutability": "view",
					"type": "function"
				}
			],
			"devdoc": {
				"kind": "dev",
				"methods": {},
				"version": 1
			},
			"evm": {
				"assembly": "    /* \"contracts/HotelRoom.sol\":59:1913  contract HotelRoom{... */\n  mstore(0x40, 0x80)\n    /* \"contracts/HotelRoom.sol\":475:651  constructor(){... */\n  callvalue\n  dup1\n  iszero\n  tag_1\n  jumpi\n  0x00\n  dup1\n  revert\ntag_1:\n  pop\n    /* \"contracts/HotelRoom.sol\":515:525  msg.sender */\n  caller\n    /* \"contracts/HotelRoom.sol\":499:504  owner */\n  0x00\n  0x01\n    /* \"contracts/HotelRoom.sol\":499:526  owner = payable(msg.sender) */\n  0x0100\n  exp\n  dup2\n  sload\n  dup2\n  0xffffffffffffffffffffffffffffffffffffffff\n  mul\n  not\n  and\n  swap1\n  dup4\n  0xffffffffffffffffffffffffffffffffffffffff\n  and\n  mul\n  or\n  swap1\n  sstore\n  pop\n    /* \"contracts/HotelRoom.sol\":628:643  Statuses.Vacant */\n  0x00\n    /* \"contracts/HotelRoom.sol\":612:625  currentStatus */\n  dup1\n  0x00\n    /* \"contracts/HotelRoom.sol\":612:643  currentStatus = Statuses.Vacant */\n  0x0100\n  exp\n  dup2\n  sload\n  dup2\n  0xff\n  mul\n  not\n  and\n  swap1\n  dup4\n  0x01\n  dup2\n  gt\n  iszero\n  tag_4\n  jumpi\n  tag_5\n  tag_6\n  jump\t// in\ntag_5:\ntag_4:\n  mul\n  or\n  swap1\n  sstore\n  pop\n    /* \"contracts/HotelRoom.sol\":59:1913  contract HotelRoom{... */\n  jump(tag_7)\n    /* \"#utility.yul\":7:187   */\ntag_6:\n    /* \"#utility.yul\":55:132   */\n  0x4e487b7100000000000000000000000000000000000000000000000000000000\n    /* \"#utility.yul\":52:53   */\n  0x00\n    /* \"#utility.yul\":45:133   */\n  mstore\n    /* \"#utility.yul\":152:156   */\n  0x21\n    /* \"#utility.yul\":149:150   */\n  0x04\n    /* \"#utility.yul\":142:157   */\n  mstore\n    /* \"#utility.yul\":176:180   */\n  0x24\n    /* \"#utility.yul\":173:174   */\n  0x00\n    /* \"#utility.yul\":166:181   */\n  revert\n    /* \"contracts/HotelRoom.sol\":59:1913  contract HotelRoom{... */\ntag_7:\n  dataSize(sub_0)\n  dup1\n  dataOffset(sub_0)\n  0x00\n  codecopy\n  0x00\n  return\nstop\n\nsub_0: assembly {\n        /* \"contracts/HotelRoom.sol\":59:1913  contract HotelRoom{... */\n      mstore(0x40, 0x80)\n      jumpi(tag_1, lt(calldatasize, 0x04))\n      shr(0xe0, calldataload(0x00))\n      dup1\n      0x8da5cb5b\n      eq\n      tag_2\n      jumpi\n      dup1\n      0xb55a3910\n      eq\n      tag_3\n      jumpi\n    tag_1:\n      0x00\n      dup1\n      revert\n        /* \"contracts/HotelRoom.sol\":373:401  address payable public owner */\n    tag_2:\n      callvalue\n      dup1\n      iszero\n      tag_4\n      jumpi\n      0x00\n      dup1\n      revert\n    tag_4:\n      pop\n      tag_5\n      tag_6\n      jump\t// in\n    tag_5:\n      mload(0x40)\n      tag_7\n      swap2\n      swap1\n      tag_8\n      jump\t// in\n    tag_7:\n      mload(0x40)\n      dup1\n      swap2\n      sub\n      swap1\n      return\n        /* \"contracts/HotelRoom.sol\":1363:1910  function bookRoom() payable public onlyWhileVacant costs(2 ether){... */\n    tag_3:\n      tag_9\n      tag_10\n      jump\t// in\n    tag_9:\n      stop\n        /* \"contracts/HotelRoom.sol\":373:401  address payable public owner */\n    tag_6:\n      0x00\n      0x01\n      swap1\n      sload\n      swap1\n      0x0100\n      exp\n      swap1\n      div\n      0xffffffffffffffffffffffffffffffffffffffff\n      and\n      dup2\n      jump\t// out\n        /* \"contracts/HotelRoom.sol\":1363:1910  function bookRoom() payable public onlyWhileVacant costs(2 ether){... */\n    tag_10:\n        /* \"contracts/HotelRoom.sol\":1056:1071  Statuses.Vacant */\n      0x00\n        /* \"contracts/HotelRoom.sol\":1039:1071  currentStatus == Statuses.Vacant */\n      0x01\n      dup2\n      gt\n      iszero\n      tag_12\n      jumpi\n      tag_13\n      tag_14\n      jump\t// in\n    tag_13:\n    tag_12:\n        /* \"contracts/HotelRoom.sol\":1039:1052  currentStatus */\n      0x00\n      dup1\n      sload\n      swap1\n      0x0100\n      exp\n      swap1\n      div\n      0xff\n      and\n        /* \"contracts/HotelRoom.sol\":1039:1071  currentStatus == Statuses.Vacant */\n      0x01\n      dup2\n      gt\n      iszero\n      tag_15\n      jumpi\n      tag_16\n      tag_14\n      jump\t// in\n    tag_16:\n    tag_15:\n      eq\n        /* \"contracts/HotelRoom.sol\":1031:1101  require(currentStatus == Statuses.Vacant,\"This room is not vacant :(\") */\n      tag_17\n      jumpi\n      mload(0x40)\n      0x08c379a000000000000000000000000000000000000000000000000000000000\n      dup2\n      mstore\n      0x04\n      add\n      tag_18\n      swap1\n      tag_19\n      jump\t// in\n    tag_18:\n      mload(0x40)\n      dup1\n      swap2\n      sub\n      swap1\n      revert\n    tag_17:\n        /* \"contracts/HotelRoom.sol\":1420:1427  2 ether */\n      0x1bc16d674ec80000\n        /* \"contracts/HotelRoom.sol\":1259:1266  _amount */\n      dup1\n        /* \"contracts/HotelRoom.sol\":1246:1255  msg.value */\n      callvalue\n        /* \"contracts/HotelRoom.sol\":1246:1266  msg.value >= _amount */\n      lt\n      iszero\n        /* \"contracts/HotelRoom.sol\":1238:1288  require(msg.value >= _amount,\"Insufficient Ether\") */\n      tag_21\n      jumpi\n      mload(0x40)\n      0x08c379a000000000000000000000000000000000000000000000000000000000\n      dup2\n      mstore\n      0x04\n      add\n      tag_22\n      swap1\n      tag_23\n      jump\t// in\n    tag_22:\n      mload(0x40)\n      dup1\n      swap2\n      sub\n      swap1\n      revert\n    tag_21:\n        /* \"contracts/HotelRoom.sol\":1455:1472  Statuses.Occupied */\n      0x01\n        /* \"contracts/HotelRoom.sol\":1439:1452  currentStatus */\n      0x00\n      dup1\n        /* \"contracts/HotelRoom.sol\":1439:1472  currentStatus = Statuses.Occupied */\n      0x0100\n      exp\n      dup2\n      sload\n      dup2\n      0xff\n      mul\n      not\n      and\n      swap1\n      dup4\n      0x01\n      dup2\n      gt\n      iszero\n      tag_25\n      jumpi\n      tag_26\n      tag_14\n      jump\t// in\n    tag_26:\n    tag_25:\n      mul\n      or\n      swap1\n      sstore\n      pop\n        /* \"contracts/HotelRoom.sol\":1674:1683  bool sent */\n      0x00\n        /* \"contracts/HotelRoom.sol\":1685:1702  bytes memory data */\n      dup1\n        /* \"contracts/HotelRoom.sol\":1706:1711  owner */\n      0x00\n      0x01\n      swap1\n      sload\n      swap1\n      0x0100\n      exp\n      swap1\n      div\n      0xffffffffffffffffffffffffffffffffffffffff\n      and\n        /* \"contracts/HotelRoom.sol\":1706:1716  owner.call */\n      0xffffffffffffffffffffffffffffffffffffffff\n      and\n        /* \"contracts/HotelRoom.sol\":1724:1733  msg.value */\n      callvalue\n        /* \"contracts/HotelRoom.sol\":1706:1738  owner.call{value: msg.value}(\"\") */\n      mload(0x40)\n      tag_27\n      swap1\n      tag_28\n      jump\t// in\n    tag_27:\n      0x00\n      mload(0x40)\n      dup1\n      dup4\n      sub\n      dup2\n      dup6\n      dup8\n      gas\n      call\n      swap3\n      pop\n      pop\n      pop\n      returndatasize\n      dup1\n      0x00\n      dup2\n      eq\n      tag_31\n      jumpi\n      mload(0x40)\n      swap2\n      pop\n      and(add(returndatasize, 0x3f), not(0x1f))\n      dup3\n      add\n      0x40\n      mstore\n      returndatasize\n      dup3\n      mstore\n      returndatasize\n      0x00\n      0x20\n      dup5\n      add\n      returndatacopy\n      jump(tag_30)\n    tag_31:\n      0x60\n      swap2\n      pop\n    tag_30:\n      pop\n        /* \"contracts/HotelRoom.sol\":1673:1738  (bool sent, bytes memory data) = owner.call{value: msg.value}(\"\") */\n      swap2\n      pop\n      swap2\n      pop\n        /* \"contracts/HotelRoom.sol\":1809:1813  true */\n      0x01\n        /* \"contracts/HotelRoom.sol\":1801:1814  require(true) */\n      tag_32\n      jumpi\n      0x00\n      dup1\n      revert\n    tag_32:\n        /* \"contracts/HotelRoom.sol\":1874:1902  Occupy(msg.sender,msg.value) */\n      0xba951166d42eb077151bdecb7cf6027562f04f0143b0c141b1bb0a33eef5d693\n        /* \"contracts/HotelRoom.sol\":1881:1891  msg.sender */\n      caller\n        /* \"contracts/HotelRoom.sol\":1892:1901  msg.value */\n      callvalue\n        /* \"contracts/HotelRoom.sol\":1874:1902  Occupy(msg.sender,msg.value) */\n      mload(0x40)\n      tag_33\n      swap3\n      swap2\n      swap1\n      tag_34\n      jump\t// in\n    tag_33:\n      mload(0x40)\n      dup1\n      swap2\n      sub\n      swap1\n      log1\n        /* \"contracts/HotelRoom.sol\":1428:1910  {... */\n      pop\n      pop\n        /* \"contracts/HotelRoom.sol\":1159:1160  _ */\n      pop\n        /* \"contracts/HotelRoom.sol\":1363:1910  function bookRoom() payable public onlyWhileVacant costs(2 ether){... */\n      jump\t// out\n        /* \"#utility.yul\":7:133   */\n    tag_35:\n        /* \"#utility.yul\":44:51   */\n      0x00\n        /* \"#utility.yul\":84:126   */\n      0xffffffffffffffffffffffffffffffffffffffff\n        /* \"#utility.yul\":77:82   */\n      dup3\n        /* \"#utility.yul\":73:127   */\n      and\n        /* \"#utility.yul\":62:127   */\n      swap1\n      pop\n        /* \"#utility.yul\":7:133   */\n      swap2\n      swap1\n      pop\n      jump\t// out\n        /* \"#utility.yul\":139:243   */\n    tag_36:\n        /* \"#utility.yul\":184:191   */\n      0x00\n        /* \"#utility.yul\":213:237   */\n      tag_53\n        /* \"#utility.yul\":231:236   */\n      dup3\n        /* \"#utility.yul\":213:237   */\n      tag_35\n      jump\t// in\n    tag_53:\n        /* \"#utility.yul\":202:237   */\n      swap1\n      pop\n        /* \"#utility.yul\":139:243   */\n      swap2\n      swap1\n      pop\n      jump\t// out\n        /* \"#utility.yul\":249:391   */\n    tag_37:\n        /* \"#utility.yul\":352:384   */\n      tag_55\n        /* \"#utility.yul\":378:383   */\n      dup2\n        /* \"#utility.yul\":352:384   */\n      tag_36\n      jump\t// in\n    tag_55:\n        /* \"#utility.yul\":347:350   */\n      dup3\n        /* \"#utility.yul\":340:385   */\n      mstore\n        /* \"#utility.yul\":249:391   */\n      pop\n      pop\n      jump\t// out\n        /* \"#utility.yul\":397:651   */\n    tag_8:\n        /* \"#utility.yul\":506:510   */\n      0x00\n        /* \"#utility.yul\":544:546   */\n      0x20\n        /* \"#utility.yul\":533:542   */\n      dup3\n        /* \"#utility.yul\":529:547   */\n      add\n        /* \"#utility.yul\":521:547   */\n      swap1\n      pop\n        /* \"#utility.yul\":557:644   */\n      tag_57\n        /* \"#utility.yul\":641:642   */\n      0x00\n        /* \"#utility.yul\":630:639   */\n      dup4\n        /* \"#utility.yul\":626:643   */\n      add\n        /* \"#utility.yul\":617:623   */\n      dup5\n        /* \"#utility.yul\":557:644   */\n      tag_37\n      jump\t// in\n    tag_57:\n        /* \"#utility.yul\":397:651   */\n      swap3\n      swap2\n      pop\n      pop\n      jump\t// out\n        /* \"#utility.yul\":657:837   */\n    tag_14:\n        /* \"#utility.yul\":705:782   */\n      0x4e487b7100000000000000000000000000000000000000000000000000000000\n        /* \"#utility.yul\":702:703   */\n      0x00\n        /* \"#utility.yul\":695:783   */\n      mstore\n        /* \"#utility.yul\":802:806   */\n      0x21\n        /* \"#utility.yul\":799:800   */\n      0x04\n        /* \"#utility.yul\":792:807   */\n      mstore\n        /* \"#utility.yul\":826:830   */\n      0x24\n        /* \"#utility.yul\":823:824   */\n      0x00\n        /* \"#utility.yul\":816:831   */\n      revert\n        /* \"#utility.yul\":843:1012   */\n    tag_38:\n        /* \"#utility.yul\":927:938   */\n      0x00\n        /* \"#utility.yul\":961:967   */\n      dup3\n        /* \"#utility.yul\":956:959   */\n      dup3\n        /* \"#utility.yul\":949:968   */\n      mstore\n        /* \"#utility.yul\":1001:1005   */\n      0x20\n        /* \"#utility.yul\":996:999   */\n      dup3\n        /* \"#utility.yul\":992:1006   */\n      add\n        /* \"#utility.yul\":977:1006   */\n      swap1\n      pop\n        /* \"#utility.yul\":843:1012   */\n      swap3\n      swap2\n      pop\n      pop\n      jump\t// out\n        /* \"#utility.yul\":1018:1198   */\n    tag_39:\n        /* \"#utility.yul\":1158:1186   */\n      0x5468697320726f6f6d206973206e6f7420766163616e74203a28000000000000\n        /* \"#utility.yul\":1154:1155   */\n      0x00\n        /* \"#utility.yul\":1146:1152   */\n      dup3\n        /* \"#utility.yul\":1142:1156   */\n      add\n        /* \"#utility.yul\":1135:1187   */\n      mstore\n        /* \"#utility.yul\":1018:1198   */\n      pop\n      jump\t// out\n        /* \"#utility.yul\":1208:1590   */\n    tag_40:\n        /* \"#utility.yul\":1350:1353   */\n      0x00\n        /* \"#utility.yul\":1375:1442   */\n      tag_62\n        /* \"#utility.yul\":1439:1441   */\n      0x1a\n        /* \"#utility.yul\":1434:1437   */\n      dup4\n        /* \"#utility.yul\":1375:1442   */\n      tag_38\n      jump\t// in\n    tag_62:\n        /* \"#utility.yul\":1368:1442   */\n      swap2\n      pop\n        /* \"#utility.yul\":1455:1548   */\n      tag_63\n        /* \"#utility.yul\":1544:1547   */\n      dup3\n        /* \"#utility.yul\":1455:1548   */\n      tag_39\n      jump\t// in\n    tag_63:\n        /* \"#utility.yul\":1577:1579   */\n      0x20\n        /* \"#utility.yul\":1572:1575   */\n      dup3\n        /* \"#utility.yul\":1568:1580   */\n      add\n        /* \"#utility.yul\":1561:1580   */\n      swap1\n      pop\n        /* \"#utility.yul\":1208:1590   */\n      swap2\n      swap1\n      pop\n      jump\t// out\n        /* \"#utility.yul\":1600:2035   */\n    tag_19:\n        /* \"#utility.yul\":1766:1770   */\n      0x00\n        /* \"#utility.yul\":1808:1810   */\n      0x20\n        /* \"#utility.yul\":1797:1806   */\n      dup3\n        /* \"#utility.yul\":1793:1811   */\n      add\n        /* \"#utility.yul\":1785:1811   */\n      swap1\n      pop\n        /* \"#utility.yul\":1861:1870   */\n      dup2\n        /* \"#utility.yul\":1855:1859   */\n      dup2\n        /* \"#utility.yul\":1851:1871   */\n      sub\n        /* \"#utility.yul\":1847:1848   */\n      0x00\n        /* \"#utility.yul\":1836:1845   */\n      dup4\n        /* \"#utility.yul\":1832:1849   */\n      add\n        /* \"#utility.yul\":1825:1872   */\n      mstore\n        /* \"#utility.yul\":1893:2024   */\n      tag_65\n        /* \"#utility.yul\":2019:2023   */\n      dup2\n        /* \"#utility.yul\":1893:2024   */\n      tag_40\n      jump\t// in\n    tag_65:\n        /* \"#utility.yul\":1885:2024   */\n      swap1\n      pop\n        /* \"#utility.yul\":1600:2035   */\n      swap2\n      swap1\n      pop\n      jump\t// out\n        /* \"#utility.yul\":2045:2221   */\n    tag_41:\n        /* \"#utility.yul\":2189:2209   */\n      0x496e73756666696369656e742045746865720000000000000000000000000000\n        /* \"#utility.yul\":2185:2186   */\n      0x00\n        /* \"#utility.yul\":2177:2183   */\n      dup3\n        /* \"#utility.yul\":2173:2187   */\n      add\n        /* \"#utility.yul\":2166:2210   */\n      mstore\n        /* \"#utility.yul\":2045:2221   */\n      pop\n      jump\t// out\n        /* \"#utility.yul\":2231:2613   */\n    tag_42:\n        /* \"#utility.yul\":2373:2376   */\n      0x00\n        /* \"#utility.yul\":2398:2465   */\n      tag_68\n        /* \"#utility.yul\":2462:2464   */\n      0x12\n        /* \"#utility.yul\":2457:2460   */\n      dup4\n        /* \"#utility.yul\":2398:2465   */\n      tag_38\n      jump\t// in\n    tag_68:\n        /* \"#utility.yul\":2391:2465   */\n      swap2\n      pop\n        /* \"#utility.yul\":2478:2571   */\n      tag_69\n        /* \"#utility.yul\":2567:2570   */\n      dup3\n        /* \"#utility.yul\":2478:2571   */\n      tag_41\n      jump\t// in\n    tag_69:\n        /* \"#utility.yul\":2600:2602   */\n      0x20\n        /* \"#utility.yul\":2595:2598   */\n      dup3\n        /* \"#utility.yul\":2591:2603   */\n      add\n        /* \"#utility.yul\":2584:2603   */\n      swap1\n      pop\n        /* \"#utility.yul\":2231:2613   */\n      swap2\n      swap1\n      pop\n      jump\t// out\n        /* \"#utility.yul\":2623:3058   */\n    tag_23:\n        /* \"#utility.yul\":2789:2793   */\n      0x00\n        /* \"#utility.yul\":2831:2833   */\n      0x20\n        /* \"#utility.yul\":2820:2829   */\n      dup3\n        /* \"#utility.yul\":2816:2834   */\n      add\n        /* \"#utility.yul\":2808:2834   */\n      swap1\n      pop\n        /* \"#utility.yul\":2884:2893   */\n      dup2\n        /* \"#utility.yul\":2878:2882   */\n      dup2\n        /* \"#utility.yul\":2874:2894   */\n      sub\n        /* \"#utility.yul\":2870:2871   */\n      0x00\n        /* \"#utility.yul\":2859:2868   */\n      dup4\n        /* \"#utility.yul\":2855:2872   */\n      add\n        /* \"#utility.yul\":2848:2895   */\n      mstore\n        /* \"#utility.yul\":2916:3047   */\n      tag_71\n        /* \"#utility.yul\":3042:3046   */\n      dup2\n        /* \"#utility.yul\":2916:3047   */\n      tag_42\n      jump\t// in\n    tag_71:\n        /* \"#utility.yul\":2908:3047   */\n      swap1\n      pop\n        /* \"#utility.yul\":2623:3058   */\n      swap2\n      swap1\n      pop\n      jump\t// out\n        /* \"#utility.yul\":3068:3223   */\n    tag_43:\n        /* \"#utility.yul\":3169:3180   */\n      0x00\n        /* \"#utility.yul\":3210:3213   */\n      dup2\n        /* \"#utility.yul\":3195:3213   */\n      swap1\n      pop\n        /* \"#utility.yul\":3068:3223   */\n      swap3\n      swap2\n      pop\n      pop\n      jump\t// out\n        /* \"#utility.yul\":3233:3351   */\n    tag_44:\n      pop\n      jump\t// out\n        /* \"#utility.yul\":3361:3775   */\n    tag_45:\n        /* \"#utility.yul\":3520:3523   */\n      0x00\n        /* \"#utility.yul\":3545:3628   */\n      tag_75\n        /* \"#utility.yul\":3626:3627   */\n      0x00\n        /* \"#utility.yul\":3621:3624   */\n      dup4\n        /* \"#utility.yul\":3545:3628   */\n      tag_43\n      jump\t// in\n    tag_75:\n        /* \"#utility.yul\":3538:3628   */\n      swap2\n      pop\n        /* \"#utility.yul\":3641:3734   */\n      tag_76\n        /* \"#utility.yul\":3730:3733   */\n      dup3\n        /* \"#utility.yul\":3641:3734   */\n      tag_44\n      jump\t// in\n    tag_76:\n        /* \"#utility.yul\":3763:3764   */\n      0x00\n        /* \"#utility.yul\":3758:3761   */\n      dup3\n        /* \"#utility.yul\":3754:3765   */\n      add\n        /* \"#utility.yul\":3747:3765   */\n      swap1\n      pop\n        /* \"#utility.yul\":3361:3775   */\n      swap2\n      swap1\n      pop\n      jump\t// out\n        /* \"#utility.yul\":3785:4176   */\n    tag_28:\n        /* \"#utility.yul\":3969:3972   */\n      0x00\n        /* \"#utility.yul\":3995:4142   */\n      tag_78\n        /* \"#utility.yul\":4138:4141   */\n      dup3\n        /* \"#utility.yul\":3995:4142   */\n      tag_45\n      jump\t// in\n    tag_78:\n        /* \"#utility.yul\":3988:4142   */\n      swap2\n      pop\n        /* \"#utility.yul\":4163:4166   */\n      dup2\n        /* \"#utility.yul\":4156:4166   */\n      swap1\n      pop\n        /* \"#utility.yul\":3785:4176   */\n      swap2\n      swap1\n      pop\n      jump\t// out\n        /* \"#utility.yul\":4186:4290   */\n    tag_46:\n        /* \"#utility.yul\":4223:4230   */\n      0x00\n        /* \"#utility.yul\":4256:4280   */\n      tag_80\n        /* \"#utility.yul\":4274:4279   */\n      dup3\n        /* \"#utility.yul\":4256:4280   */\n      tag_35\n      jump\t// in\n    tag_80:\n        /* \"#utility.yul\":4245:4280   */\n      swap1\n      pop\n        /* \"#utility.yul\":4186:4290   */\n      swap2\n      swap1\n      pop\n      jump\t// out\n        /* \"#utility.yul\":4300:4426   */\n    tag_47:\n        /* \"#utility.yul\":4391:4415   */\n      tag_82\n        /* \"#utility.yul\":4409:4414   */\n      dup2\n        /* \"#utility.yul\":4391:4415   */\n      tag_46\n      jump\t// in\n    tag_82:\n        /* \"#utility.yul\":4386:4389   */\n      dup3\n        /* \"#utility.yul\":4379:4416   */\n      mstore\n        /* \"#utility.yul\":4300:4426   */\n      pop\n      pop\n      jump\t// out\n        /* \"#utility.yul\":4436:4521   */\n    tag_48:\n        /* \"#utility.yul\":4473:4480   */\n      0x00\n        /* \"#utility.yul\":4506:4511   */\n      dup2\n        /* \"#utility.yul\":4495:4511   */\n      swap1\n      pop\n        /* \"#utility.yul\":4436:4521   */\n      swap2\n      swap1\n      pop\n      jump\t// out\n        /* \"#utility.yul\":4531:4657   */\n    tag_49:\n        /* \"#utility.yul\":4622:4646   */\n      tag_85\n        /* \"#utility.yul\":4640:4645   */\n      dup2\n        /* \"#utility.yul\":4622:4646   */\n      tag_48\n      jump\t// in\n    tag_85:\n        /* \"#utility.yul\":4617:4620   */\n      dup3\n        /* \"#utility.yul\":4610:4647   */\n      mstore\n        /* \"#utility.yul\":4531:4657   */\n      pop\n      pop\n      jump\t// out\n        /* \"#utility.yul\":4667:5015   */\n    tag_34:\n        /* \"#utility.yul\":4788:4792   */\n      0x00\n        /* \"#utility.yul\":4830:4832   */\n      0x40\n        /* \"#utility.yul\":4819:4828   */\n      dup3\n        /* \"#utility.yul\":4815:4833   */\n      add\n        /* \"#utility.yul\":4807:4833   */\n      swap1\n      pop\n        /* \"#utility.yul\":4847:4918   */\n      tag_87\n        /* \"#utility.yul\":4915:4916   */\n      0x00\n        /* \"#utility.yul\":4904:4913   */\n      dup4\n        /* \"#utility.yul\":4900:4917   */\n      add\n        /* \"#utility.yul\":4891:4897   */\n      dup6\n        /* \"#utility.yul\":4847:4918   */\n      tag_47\n      jump\t// in\n    tag_87:\n        /* \"#utility.yul\":4932:5004   */\n      tag_88\n        /* \"#utility.yul\":5000:5002   */\n      0x20\n        /* \"#utility.yul\":4989:4998   */\n      dup4\n        /* \"#utility.yul\":4985:5003   */\n      add\n        /* \"#utility.yul\":4976:4982   */\n      dup5\n        /* \"#utility.yul\":4932:5004   */\n      tag_49\n      jump\t// in\n    tag_88:\n        /* \"#utility.yul\":4667:5015   */\n      swap4\n      swap3\n      pop\n      pop\n      pop\n      jump\t// out\n\n    auxdata: 0xa26469706673582212207c6e44bb5ab36d7fab17abfaa34a281a8cde330b4ec25761fa13ec8874345f5f64736f6c63430008080033\n}\n",
				"bytecode": {
					"linkReferences": {},
					"object": "608060405234801561001057600080fd5b5033600060016101000a81548173ffffffffffffffffffffffffffffffffffffffff021916908373ffffffffffffffffffffffffffffffffffffffff16021790555060008060006101000a81548160ff0219169083600181111561007757610076610081565b5b02179055506100b0565b7f4e487b7100000000000000000000000000000000000000000000000000000000600052602160045260246000fd5b61049f806100bf6000396000f3fe6080604052600436106100295760003560e01c80638da5cb5b1461002e578063b55a391014610059575b600080fd5b34801561003a57600080fd5b50610043610063565b604051610050919061028d565b60405180910390f35b610061610089565b005b600060019054906101000a900473ffffffffffffffffffffffffffffffffffffffff1681565b6000600181111561009d5761009c6102a8565b5b60008054906101000a900460ff1660018111156100bd576100bc6102a8565b5b146100fd576040517f08c379a00000000000000000000000000000000000000000000000000000000081526004016100f490610334565b60405180910390fd5b671bc16d674ec8000080341015610149576040517f08c379a0000000000000000000000000000000000000000000000000000000008152600401610140906103a0565b60405180910390fd5b60016000806101000a81548160ff0219169083600181111561016e5761016d6102a8565b5b0217905550600080600060019054906101000a900473ffffffffffffffffffffffffffffffffffffffff1673ffffffffffffffffffffffffffffffffffffffff16346040516101bc906103f1565b60006040518083038185875af1925050503d80600081146101f9576040519150601f19603f3d011682016040523d82523d6000602084013e6101fe565b606091505b5091509150600161020e57600080fd5b7fba951166d42eb077151bdecb7cf6027562f04f0143b0c141b1bb0a33eef5d693333460405161023f929190610440565b60405180910390a1505050565b600073ffffffffffffffffffffffffffffffffffffffff82169050919050565b60006102778261024c565b9050919050565b6102878161026c565b82525050565b60006020820190506102a2600083018461027e565b92915050565b7f4e487b7100000000000000000000000000000000000000000000000000000000600052602160045260246000fd5b600082825260208201905092915050565b7f5468697320726f6f6d206973206e6f7420766163616e74203a28000000000000600082015250565b600061031e601a836102d7565b9150610329826102e8565b602082019050919050565b6000602082019050818103600083015261034d81610311565b9050919050565b7f496e73756666696369656e742045746865720000000000000000000000000000600082015250565b600061038a6012836102d7565b915061039582610354565b602082019050919050565b600060208201905081810360008301526103b98161037d565b9050919050565b600081905092915050565b50565b60006103db6000836103c0565b91506103e6826103cb565b600082019050919050565b60006103fc826103ce565b9150819050919050565b60006104118261024c565b9050919050565b61042181610406565b82525050565b6000819050919050565b61043a81610427565b82525050565b60006040820190506104556000830185610418565b6104626020830184610431565b939250505056fea26469706673582212207c6e44bb5ab36d7fab17abfaa34a281a8cde330b4ec25761fa13ec8874345f5f64736f6c63430008080033",
					"opcodes": "PUSH1 0x80 PUSH1 0x40 MSTORE CALLVALUE DUP1 ISZERO PUSH2 0x10 JUMPI PUSH1 0x0 DUP1 REVERT JUMPDEST POP CALLER PUSH1 0x0 PUSH1 0x1 PUSH2 0x100 EXP DUP2 SLOAD DUP2 PUSH20 0xFFFFFFFFFFFFFFFFFFFFFFFFFFFFFFFFFFFFFFFF MUL NOT AND SWAP1 DUP4 PUSH20 0xFFFFFFFFFFFFFFFFFFFFFFFFFFFFFFFFFFFFFFFF AND MUL OR SWAP1 SSTORE POP PUSH1 0x0 DUP1 PUSH1 0x0 PUSH2 0x100 EXP DUP2 SLOAD DUP2 PUSH1 0xFF MUL NOT AND SWAP1 DUP4 PUSH1 0x1 DUP2 GT ISZERO PUSH2 0x77 JUMPI PUSH2 0x76 PUSH2 0x81 JUMP JUMPDEST JUMPDEST MUL OR SWAP1 SSTORE POP PUSH2 0xB0 JUMP JUMPDEST PUSH32 0x4E487B7100000000000000000000000000000000000000000000000000000000 PUSH1 0x0 MSTORE PUSH1 0x21 PUSH1 0x4 MSTORE PUSH1 0x24 PUSH1 0x0 REVERT JUMPDEST PUSH2 0x49F DUP1 PUSH2 0xBF PUSH1 0x0 CODECOPY PUSH1 0x0 RETURN INVALID PUSH1 0x80 PUSH1 0x40 MSTORE PUSH1 0x4 CALLDATASIZE LT PUSH2 0x29 JUMPI PUSH1 0x0 CALLDATALOAD PUSH1 0xE0 SHR DUP1 PUSH4 0x8DA5CB5B EQ PUSH2 0x2E JUMPI DUP1 PUSH4 0xB55A3910 EQ PUSH2 0x59 JUMPI JUMPDEST PUSH1 0x0 DUP1 REVERT JUMPDEST CALLVALUE DUP1 ISZERO PUSH2 0x3A JUMPI PUSH1 0x0 DUP1 REVERT JUMPDEST POP PUSH2 0x43 PUSH2 0x63 JUMP JUMPDEST PUSH1 0x40 MLOAD PUSH2 0x50 SWAP2 SWAP1 PUSH2 0x28D JUMP JUMPDEST PUSH1 0x40 MLOAD DUP1 SWAP2 SUB SWAP1 RETURN JUMPDEST PUSH2 0x61 PUSH2 0x89 JUMP JUMPDEST STOP JUMPDEST PUSH1 0x0 PUSH1 0x1 SWAP1 SLOAD SWAP1 PUSH2 0x100 EXP SWAP1 DIV PUSH20 0xFFFFFFFFFFFFFFFFFFFFFFFFFFFFFFFFFFFFFFFF AND DUP2 JUMP JUMPDEST PUSH1 0x0 PUSH1 0x1 DUP2 GT ISZERO PUSH2 0x9D JUMPI PUSH2 0x9C PUSH2 0x2A8 JUMP JUMPDEST JUMPDEST PUSH1 0x0 DUP1 SLOAD SWAP1 PUSH2 0x100 EXP SWAP1 DIV PUSH1 0xFF AND PUSH1 0x1 DUP2 GT ISZERO PUSH2 0xBD JUMPI PUSH2 0xBC PUSH2 0x2A8 JUMP JUMPDEST JUMPDEST EQ PUSH2 0xFD JUMPI PUSH1 0x40 MLOAD PUSH32 0x8C379A000000000000000000000000000000000000000000000000000000000 DUP2 MSTORE PUSH1 0x4 ADD PUSH2 0xF4 SWAP1 PUSH2 0x334 JUMP JUMPDEST PUSH1 0x40 MLOAD DUP1 SWAP2 SUB SWAP1 REVERT JUMPDEST PUSH8 0x1BC16D674EC80000 DUP1 CALLVALUE LT ISZERO PUSH2 0x149 JUMPI PUSH1 0x40 MLOAD PUSH32 0x8C379A000000000000000000000000000000000000000000000000000000000 DUP2 MSTORE PUSH1 0x4 ADD PUSH2 0x140 SWAP1 PUSH2 0x3A0 JUMP JUMPDEST PUSH1 0x40 MLOAD DUP1 SWAP2 SUB SWAP1 REVERT JUMPDEST PUSH1 0x1 PUSH1 0x0 DUP1 PUSH2 0x100 EXP DUP2 SLOAD DUP2 PUSH1 0xFF MUL NOT AND SWAP1 DUP4 PUSH1 0x1 DUP2 GT ISZERO PUSH2 0x16E JUMPI PUSH2 0x16D PUSH2 0x2A8 JUMP JUMPDEST JUMPDEST MUL OR SWAP1 SSTORE POP PUSH1 0x0 DUP1 PUSH1 0x0 PUSH1 0x1 SWAP1 SLOAD SWAP1 PUSH2 0x100 EXP SWAP1 DIV PUSH20 0xFFFFFFFFFFFFFFFFFFFFFFFFFFFFFFFFFFFFFFFF AND PUSH20 0xFFFFFFFFFFFFFFFFFFFFFFFFFFFFFFFFFFFFFFFF AND CALLVALUE PUSH1 0x40 MLOAD PUSH2 0x1BC SWAP1 PUSH2 0x3F1 JUMP JUMPDEST PUSH1 0x0 PUSH1 0x40 MLOAD DUP1 DUP4 SUB DUP2 DUP6 DUP8 GAS CALL SWAP3 POP POP POP RETURNDATASIZE DUP1 PUSH1 0x0 DUP2 EQ PUSH2 0x1F9 JUMPI PUSH1 0x40 MLOAD SWAP2 POP PUSH1 0x1F NOT PUSH1 0x3F RETURNDATASIZE ADD AND DUP3 ADD PUSH1 0x40 MSTORE RETURNDATASIZE DUP3 MSTORE RETURNDATASIZE PUSH1 0x0 PUSH1 0x20 DUP5 ADD RETURNDATACOPY PUSH2 0x1FE JUMP JUMPDEST PUSH1 0x60 SWAP2 POP JUMPDEST POP SWAP2 POP SWAP2 POP PUSH1 0x1 PUSH2 0x20E JUMPI PUSH1 0x0 DUP1 REVERT JUMPDEST PUSH32 0xBA951166D42EB077151BDECB7CF6027562F04F0143B0C141B1BB0A33EEF5D693 CALLER CALLVALUE PUSH1 0x40 MLOAD PUSH2 0x23F SWAP3 SWAP2 SWAP1 PUSH2 0x440 JUMP JUMPDEST PUSH1 0x40 MLOAD DUP1 SWAP2 SUB SWAP1 LOG1 POP POP POP JUMP JUMPDEST PUSH1 0x0 PUSH20 0xFFFFFFFFFFFFFFFFFFFFFFFFFFFFFFFFFFFFFFFF DUP3 AND SWAP1 POP SWAP2 SWAP1 POP JUMP JUMPDEST PUSH1 0x0 PUSH2 0x277 DUP3 PUSH2 0x24C JUMP JUMPDEST SWAP1 POP SWAP2 SWAP1 POP JUMP JUMPDEST PUSH2 0x287 DUP2 PUSH2 0x26C JUMP JUMPDEST DUP3 MSTORE POP POP JUMP JUMPDEST PUSH1 0x0 PUSH1 0x20 DUP3 ADD SWAP1 POP PUSH2 0x2A2 PUSH1 0x0 DUP4 ADD DUP5 PUSH2 0x27E JUMP JUMPDEST SWAP3 SWAP2 POP POP JUMP JUMPDEST PUSH32 0x4E487B7100000000000000000000000000000000000000000000000000000000 PUSH1 0x0 MSTORE PUSH1 0x21 PUSH1 0x4 MSTORE PUSH1 0x24 PUSH1 0x0 REVERT JUMPDEST PUSH1 0x0 DUP3 DUP3 MSTORE PUSH1 0x20 DUP3 ADD SWAP1 POP SWAP3 SWAP2 POP POP JUMP JUMPDEST PUSH32 0x5468697320726F6F6D206973206E6F7420766163616E74203A28000000000000 PUSH1 0x0 DUP3 ADD MSTORE POP JUMP JUMPDEST PUSH1 0x0 PUSH2 0x31E PUSH1 0x1A DUP4 PUSH2 0x2D7 JUMP JUMPDEST SWAP2 POP PUSH2 0x329 DUP3 PUSH2 0x2E8 JUMP JUMPDEST PUSH1 0x20 DUP3 ADD SWAP1 POP SWAP2 SWAP1 POP JUMP JUMPDEST PUSH1 0x0 PUSH1 0x20 DUP3 ADD SWAP1 POP DUP2 DUP2 SUB PUSH1 0x0 DUP4 ADD MSTORE PUSH2 0x34D DUP2 PUSH2 0x311 JUMP JUMPDEST SWAP1 POP SWAP2 SWAP1 POP JUMP JUMPDEST PUSH32 0x496E73756666696369656E742045746865720000000000000000000000000000 PUSH1 0x0 DUP3 ADD MSTORE POP JUMP JUMPDEST PUSH1 0x0 PUSH2 0x38A PUSH1 0x12 DUP4 PUSH2 0x2D7 JUMP JUMPDEST SWAP2 POP PUSH2 0x395 DUP3 PUSH2 0x354 JUMP JUMPDEST PUSH1 0x20 DUP3 ADD SWAP1 POP SWAP2 SWAP1 POP JUMP JUMPDEST PUSH1 0x0 PUSH1 0x20 DUP3 ADD SWAP1 POP DUP2 DUP2 SUB PUSH1 0x0 DUP4 ADD MSTORE PUSH2 0x3B9 DUP2 PUSH2 0x37D JUMP JUMPDEST SWAP1 POP SWAP2 SWAP1 POP JUMP JUMPDEST PUSH1 0x0 DUP2 SWAP1 POP SWAP3 SWAP2 POP POP JUMP JUMPDEST POP JUMP JUMPDEST PUSH1 0x0 PUSH2 0x3DB PUSH1 0x0 DUP4 PUSH2 0x3C0 JUMP JUMPDEST SWAP2 POP PUSH2 0x3E6 DUP3 PUSH2 0x3CB JUMP JUMPDEST PUSH1 0x0 DUP3 ADD SWAP1 POP SWAP2 SWAP1 POP JUMP JUMPDEST PUSH1 0x0 PUSH2 0x3FC DUP3 PUSH2 0x3CE JUMP JUMPDEST SWAP2 POP DUP2 SWAP1 POP SWAP2 SWAP1 POP JUMP JUMPDEST PUSH1 0x0 PUSH2 0x411 DUP3 PUSH2 0x24C JUMP JUMPDEST SWAP1 POP SWAP2 SWAP1 POP JUMP JUMPDEST PUSH2 0x421 DUP2 PUSH2 0x406 JUMP JUMPDEST DUP3 MSTORE POP POP JUMP JUMPDEST PUSH1 0x0 DUP2 SWAP1 POP SWAP2 SWAP1 POP JUMP JUMPDEST PUSH2 0x43A DUP2 PUSH2 0x427 JUMP JUMPDEST DUP3 MSTORE POP POP JUMP JUMPDEST PUSH1 0x0 PUSH1 0x40 DUP3 ADD SWAP1 POP PUSH2 0x455 PUSH1 0x0 DUP4 ADD DUP6 PUSH2 0x418 JUMP JUMPDEST PUSH2 0x462 PUSH1 0x20 DUP4 ADD DUP5 PUSH2 0x431 JUMP JUMPDEST SWAP4 SWAP3 POP POP POP JUMP INVALID LOG2 PUSH5 0x6970667358 0x22 SLT KECCAK256 PUSH29 0x6E44BB5AB36D7FAB17ABFAA34A281A8CDE330B4EC25761FA13EC887434 0x5F 0x5F PUSH5 0x736F6C6343 STOP ADDMOD ADDMOD STOP CALLER "
				},
				"gasEstimates": {
					"creation": {
						"codeDepositCost": "236600",
						"executionCost": "48890",
						"totalCost": "285490"
					},
					"external": {
						"bookRoom()": "infinite",
						"owner()": "2542"
					}
				},
				"methodIdentifiers": {
					"bookRoom()": "b55a3910",
					"owner()": "8da5cb5b"
				}
			},
			"storageLayout": {
				"storage": [
					{
						"astId": 7,
						"contract": "contracts/HotelRoom.sol:HotelRoom",
						"label": "currentStatus",
						"offset": 0,
						"slot": "0",
						"type": "t_enum(Statuses)4"
					},
					{
						"astId": 9,
						"contract": "contracts/HotelRoom.sol:HotelRoom",
						"label": "owner",
						"offset": 1,
						"slot": "0",
						"type": "t_address_payable"
					}
				],
				"types": {
					"t_address_payable": {
						"encoding": "inplace",
						"label": "address payable",
						"numberOfBytes": "20"
					},
					"t_enum(Statuses)4": {
						"encoding": "inplace",
						"label": "enum HotelRoom.Statuses",
						"numberOfBytes": "1"
					}
				}
			},
			"userdoc": {
				"kind": "user",
				"methods": {},
				"version": 1
			}
		}
	}
}